:040000005CEF00F0C1
:08000800046ED8CF05F0E0CF33
:1000100006F00001E9CF0CF0EACF07F0E1CF08F0DD
:10002000E2CF09F0D9CF0AF0DACF0BF0F3CF12F01C
:10003000F4CF13F0FACF14F000C00EF001C00FF0AF
:1000400002C010F003C011F09DAA2AEF00F09EBA82
:100050004BEF00F00EC000F00FC001F010C002F036
:1000600011C003F00CC0E9FF07C0EAFF078E08C00B
:10007000E1FF09C0E2FF0AC0D9FF0BC0DAFF12C0DE
:10008000F3FF13C0F4FF14C0FAFF045006C0E0FFF2
:1000900005C0D8FF1000166A9EAAFED7AECF16F094
:1000A00016509EA8FED7AD6E100E006E002EFED725
:1000B00000009E9A2AEF00F0F86AD09E078EB8964C
:1000C000400EAF6EA60EAC6E900EAB6E166AC150AF
:0E00D000C00B0F09C16E070EB46EFFD7030000
:020000040030CA
:0E00000027CC3E1E0007A1000FC00FE00F40EE
:00000001FF
;PIC18F4550
;CRC=634D  CREATED="28-mar-15 04:32"
