:040000008FEF00F08E
:08000800046ED8CF05F0E0CF33
:1000100006F00001E9CF0CF0EACF07F0E1CF08F0DD
:10002000E2CF09F0D9CF0AF0DACF0BF0F3CF12F01C
:10003000F4CF13F0FACF14F000C00EF001C00FF0AF
:1000400002C010F003C011F09DAA2AEF00F09EBA82
:100050004BEF00F00EC000F00FC001F010C002F036
:1000600011C003F00CC0E9FF07C0EAFF078E08C00B
:10007000E1FF09C0E2FF0AC0D9FF0BC0DAFF12C0DE
:10008000F3FF13C0F4FF14C0FAFF045006C0E0FFF2
:1000900005C0D8FF1000166A9EAAFED7AECF16F094
:1000A0008C7C17809E9A2AEF00F0436F6E65637414
:1000B00061646F2E2E2E2E2A00000900F5520DE0ED
:1000C000F6CF18F0F7CF19F0F5509EA8FED7AD6E19
:1000D00018C0F6FF19C0F7FFF0D782EF00F0000E4E
:1000E000936E956E926E8A6A8C6A896A83EF00F0CD
:1000F000C00EF2129D8A84EF00F0AA0EF66E000E7A
:10010000F76EDBD7ECD7F4D7A2EF00F09D9A1790EB
:1001100016509EA8FED7AD6E9D8AA5EF00F0F86A36
:10012000D09E078EB896400EAF6EA60EAC6E900EA7
:10013000AB6E166A1790C150C00B0F09C16E070E47
:0E014000B46EDBD717A001D0E1D7FCD70300C7
:020000040030CA
:0E00000027CC3E1E0007A1000FC00FE00F40EE
:00000001FF
;PIC18F4550
;CRC=938C  CREATED="04-abr-15 01:30"
